:100000000C9467000C9484000C9484000C9484007D
:100010000C9484000C9484000C9484000C94840050
:100020000C9484000C9484000C9484000C94840040
:100030000C9484000C9484000C9484000C94840030
:100040000C9484000C9484000C9484000C94840020
:100050000C9484000C9484000C9484000C94840010
:100060000C9484000C948400000000000000000048
:100070000000007D00690069009B0002008700739A
:10008000006900AF00030091007D006900C3000417
:100090000069008700690069000A00A50069007313
:1000A000006900050069009B00730069000600B943
:1000B0000069007D00690007006900AF007D0069EC
:1000C0000008006900690087006900090000112428
:1000D0001FBECFEFD4E0DEBFCDBF11E0A0E0B1E0A6
:1000E000E2E6F7E002C005900D92A230B107D9F721
:1000F00011E0A2E0B1E001C01D92AC33B107E1F71D
:100100000E9437020C94AF030C94000088B1806306
:1001100088B987B18F7C87B980E28093B80010924C
:10012000B900089594EA9093BC009091BC0097FFA9
:10013000FCCF9091B900987F983039F58093BB003F
:1001400084E88093BC008091BC0087FFFCCF809145
:10015000B900887F8831C9F46093BB0084E880933C
:10016000BC008091BC0087FFFCCF8091B900887FE4
:10017000883259F44093BB0084E88093BC0080919E
:10018000BC0087FFFCCF8091B90084E98093BC005C
:10019000089594EA9093BC009091BC0097FFFCCF27
:1001A0009091B900987F983009F043C08093BB00CC
:1001B00094E89093BC009091BC0097FFFCCF909185
:1001C000B900987F9831A9F56093BB0094E89093AB
:1001D000BC009091BC0097FFFCCF9091B900987F34
:1001E000983239F594EA9093BC009091BC0097FF47
:1001F000FCCF9091B900987F9031D9F48F5F8093B4
:10020000BB0084E88093BC008091BC0087FFFCCFDA
:100210008091B900887F803461F484E88093BC00C9
:100220008091BC0087FFFCCF8091B900887F883522
:1002300029F084E98093BC0080E008958091BB00A0
:1002400094E99093BC000895CF93DF93EC0180ED87
:1002500060E00E94C900888387EC90E00197F1F785
:1002600000C0000080ED61E00E94C900898387EC36
:1002700090E00197F1F700C0000080ED62E00E947D
:10028000C9008A8387EC90E00197F1F700C0000075
:1002900080ED63E00E94C9008B8387EC90E00197BA
:1002A000F1F700C0000080ED64E00E94C9008C837B
:1002B00087EC90E00197F1F700C0000080ED65E069
:1002C0000E94C9008D8387EC90E00197F1F700C090
:1002D000000080ED66E00E94C9008E8387EC90E00C
:1002E0000197F1F700C0000080ED67E00E94C900AF
:1002F0008F8387EC90E00197F1F700C00000DF9159
:10030000CF91089580ED60E00E94C900EFECF7E026
:100310003197F1F700C0000087FF21C080ED62E057
:1003200042E10E94920087EC90E00197F1F700C053
:10033000000080ED61E040E00E949200E7ECF0E018
:100340003197F1F700C0000080ED60E040E00E94CE
:10035000920087EC90E00197F1F700C0000008954B
:10036000CF93DF93EC0180ED62E04A810E9492001E
:1003700087EC90E00197F1F700C0000080ED61E0AC
:1003800049810E94920087EC90E00197F1F700C04C
:10039000000080ED60E040E00E94920087EC90E079
:1003A0000197F1F700C00000DF91CF910895CF933E
:1003B000DF93EC0180ED65E04D810E94920087ECB7
:1003C00090E00197F1F700C0000080ED64E04C81FF
:1003D0000E94920087EC90E00197F1F700C00000C6
:1003E000DF91CF910895FC0180ED66E046810E9487
:1003F000920087EC90E00197F1F700C000000895AB
:1004000089B1807F80930201803FF1F090910301D8
:100410008917D1F0EFECF7E03197F1F700C0000059
:10042000803F71F029B1482F50E030E0207F3070DC
:100430004217530729F480930301882359F409C014
:1004400080EF8093020101C080EF8093030180E080
:10045000089581E008958BB1806F8BB98AB18F7058
:100460008AB980EF809302018093030108950E946E
:10047000A10278940E94EB02FDCF84B18C6284B912
:100480002A9880E58CBD81E08DBD0895DF93CF93E0
:1004900000D0CDB7DEB79A838983FE013196818182
:1004A0008EBD0DB407FEFDCF80818EBD0DB407FE5D
:1004B000FDCF8AE18A95F1F700C02A9A8AE18A95F0
:1004C000F1F700C02A988AE18A95F1F700C00F90F1
:1004D0000F90CF91DF910895DF92EF92FF920F93EB
:1004E0001F93CF93DF93D62E082F192FC0E0D0E0B3
:1004F000E42EFF241BC0853088F09E01255030403B
:10050000C70102C0959587952A95E2F79C01F801ED
:100510008081918120FF05C08F6003C0F801808138
:1005200091810E94460221960E5F1F4F8C2FCD15A0
:1005300010F3DF91CF911F910F91FF90EF90DF901B
:1005400008950E9486008FE091E00E9482010E943F
:100550002B020E943D028FE09AE090931901809354
:1005600018018FEF99E090931B0180931A0185E0A9
:100570009BE090931D0180931C0181E09CE090938F
:100580001F0180931E0180E09FE0909321018093E2
:10059000200181E091E0909323018093220182E089
:1005A00092E0909325018093240183E093E090935F
:1005B00027018093260184E094E0909329018093A1
:1005C000280185E095E090932B0180932A018FEF1D
:1005D0008093380108950E9400028093000190E00A
:1005E0000E942203809104019091050123E0883E3E
:1005F000920739F410920501109204010E94100331
:10060000089501969093050180930401089520E0D8
:100610008936920721F090933B0180933A01089527
:1006200080910101823020F48F5F80930101089551
:1006300081E090910C01911180E080930C01109267
:1006400001010895833009F43DC0843038F42091CD
:100650003A0130913B01823050F015C08530E9F00D
:10066000853008F42FC0863009F02CC021C0F90174
:100670003896E491E550E53028F12E5F3F4FF901BF
:100680002591349111C0F9013896E491E550E53097
:10069000C8F0F9012591349107C0E0913A01F09139
:1006A0003B01369625913491C9010E9407030895B4
:1006B000E0913A01F0913B01349625913491C901C2
:1006C0000E940703089583E790E090933B01809395
:1006D0003A010895FC01DB01828182958F7090E0E0
:1006E000956011969C938E93828190E08F709070AC
:1006F000946013969C938E9312978AE093E01596DC
:100700009C938E931497818182958F7090E0926074
:1007100017969C938E931697818190E08F709070BE
:10072000916019969C938E9318970895FC01DB01B4
:1007300082818F7090819295907F892B12968C93F5
:10074000129780858F7096819295907F892B119654
:100750008C93119708950895089508950895F89435
:02076000FFCFC9
:02076200F06441
:00000001FF
