:100000000C9434000C9446000C9446000C9446006A
:100010000C9446000C9446000C9446000C94460048
:100020000C9446000C9446000C9446000C94460038
:100030000C9446000C9446000C9446000C94460028
:100040000C9446000C9446000C9446000C94460018
:100050000C9446000C9446000C9446000C94460008
:100060000C9446000C94460011241FBECFEFD4E040
:10007000DEBFCDBF11E0A0E0B1E001C01D92AE3205
:10008000B107E1F70E94E4010C94FA020C9400001D
:1000900088B1806388B987B18F7C87B980E280930B
:1000A000B8001092B900089594EA9093BC00909122
:1000B000BC0097FFFCCF9091B900987F983039F53C
:1000C0008093BB0084E88093BC008091BC0087FFD4
:1000D000FCCF8091B900887F8831C9F46093BB0060
:1000E00084E88093BC008091BC0087FFFCCF8091A6
:1000F000B900887F883259F44093BB0084E880932C
:10010000BC008091BC0087FFFCCF8091B90084E9DE
:100110008093BC00089594EA9093BC009091BC0039
:1001200097FFFCCF9091B900987F983009F043C0B9
:100130008093BB0094E89093BC009091BC0097FF23
:10014000FCCF9091B900987F9831A9F56093BB00DE
:1001500094E89093BC009091BC0097FFFCCF9091E5
:10016000B900987F983239F594EA9093BC00909149
:10017000BC0097FFFCCF9091B900987F9031D9F4E3
:100180008F5F8093BB0084E88093BC008091BC00AB
:1001900087FFFCCF8091B900887F803461F484E8C8
:1001A0008093BC008091BC0087FFFCCF8091B90098
:1001B000887F883529F084E98093BC0080E0089529
:1001C0008091BB0094E99093BC000895CF93DF9396
:1001D000EC0180ED60E00E948B00888387EC90E06A
:1001E0000197F1F700C0000080ED61E00E948B00F4
:1001F000898387EC90E00197F1F700C0000080ED63
:1002000062E00E948B008A8387EC90E00197F1F70F
:1002100000C0000080ED63E00E948B008B8387ECC0
:1002200090E00197F1F700C0000080ED64E00E94CB
:100230008B008C8387EC90E00197F1F700C0000001
:1002400080ED65E00E948B008D8387EC90E0019744
:10025000F1F700C0000080ED66E00E948B008E8305
:1002600087EC90E00197F1F700C0000080ED67E0B7
:100270000E948B008F8387EC90E00197F1F700C01C
:100280000000DF91CF91089580ED60E00E948B0027
:10029000EFECF7E03197F1F700C0000087FF21C0D5
:1002A00080ED62E042E10E94540087EC90E001970B
:1002B000F1F700C0000080ED61E040E00E945400D2
:1002C000E7ECF0E03197F1F700C0000080ED60E06E
:1002D00040E00E94540087EC90E00197F1F700C0E5
:1002E00000000895CF93DF93EC0180ED62E04A8136
:1002F0000E94540087EC90E00197F1F700C00000E5
:1003000080ED61E049810E94540087EC90E0019704
:10031000F1F700C0000080ED60E040E00E94540072
:1003200087EC90E00197F1F700C00000DF91CF91DA
:100330000895CF93DF93EC0180ED65E04D810E943D
:10034000540087EC90E00197F1F700C0000080EDC9
:1003500064E04C810E94540087EC90E00197F1F733
:1003600000C00000DF91CF910895FC0180ED66E0B0
:1003700046810E94540087EC90E00197F1F700C09D
:100380000000089585FF06C087FF06C086FF06C0EF
:1003900080E0089581E0089584E0089583E0089561
:1003A00089B1807E0E94C201809301018093020185
:1003B00008958BB1806E8BB98AB18F718AB9109212
:1003C00001011092020108950E944E0278940E9449
:1003D000DB02FDCF84B18C6284B92A9880E58CBDA4
:1003E00081E08DBD0895DF93CF9300D0CDB7DEB708
:1003F0009A838983FE01319681818EBD0DB407FEFB
:10040000FDCF80818EBD0DB407FEFDCF8AE18A95B8
:10041000F1F700C02A9A8AE18A95F1F700C02A987C
:100420008AE18A95F1F700C00F900F90CF91DF918C
:100430000895DF92EF92FF920F931F93CF93DF9374
:10044000D62E082F192FC0E0D0E0E42EFF241BC0C9
:10045000853088F09E0125503040C70102C0959537
:1004600087952A95E2F79C01F8018081918120FF10
:1004700005C08F6003C0F801808191810E94F30163
:1004800021960E5F1F4F8C2FCD1510F3DF91CF916A
:100490001F910F91FF90EF90DF9008950E94480008
:1004A00083E091E00E9444010E94EA018FE09AE01B
:1004B00090930D0180930C018FEF99E090930F01C1
:1004C00080930E0185E09BE09093110180931001D1
:1004D00081E09CE0909313018093120180E09FE003
:1004E000909315018093140181E091E0909317019E
:1004F0008093160182E092E0909319018093180195
:1005000083E093E090931B0180931A0184E094E0D0
:1005100090931D0180931C0185E095E090931F014D
:1005200080931E018FEF80932C010895FC01DB0165
:10053000828182958F7090E0956011969C938E9346
:10054000828190E08F709070946013969C938E934C
:1005500012978AE093E015969C938E93149781816D
:1005600082958F7090E0926017969C938E93169769
:10057000818190E08F709070916019969C938E931A
:1005800018970895FC01DB0182818F70908192950C
:10059000907F892B12968C93129780858F7096810D
:1005A0009295907F892B11968C93119708950895B9
:1005B000089508950895CF93DF938FEF94E3ACE00F
:1005C00081509040A040E1F700C00000C3E0D1E0BE
:1005D000CE010E94E600BE016D5E7F4FCE010E94FB
:1005E0009602CE0109966AE041E00E941902DF916D
:0805F000CF910895F894FFCFAC
:00000001FF
