:100000000C946B000C9488000C9488000C9488006D
:100010000C9488000C9488000C9488000C94880040
:100020000C9488000C9488000C9488000C94880030
:100030000C9488000C9488000C9488000C94880020
:100040000C9488000C9488000C9488000C94880010
:100050000C9488000C9488000C9488000C94880000
:100060000C9488000C948800000000000000000040
:1000700000007C0068006800B80002008600720082
:100080006800C200030090007C006800CC000400FF
:100090009A008600680068000800A40090006800CC
:1000A00068000900AE009A00680068000A00680055
:1000B000A400680068000B00680068007200680017
:1000C0000500680068007C006800060068006800A1
:1000D00086006800070011241FBECFEFD4E0DEBF0A
:1000E000CDBF11E0A0E0B1E0ECEAFCE002C0059079
:1000F0000D92A230B107D9F711E0A2E0B1E001C042
:100100001D92AB33B107E1F70E947E020C945406B6
:100110000C94000088B1806388B987B18F7C87B95F
:1001200080E28093B8001092B900089594EA909309
:10013000BC009091BC0097FFFCCF9091B900987FD4
:10014000983039F58093BB0084E88093BC0080919F
:10015000BC0087FFFCCF8091B900887F8831C9F44B
:100160006093BB0084E88093BC008091BC0087FF53
:10017000FCCF8091B900887F883259F44093BB004E
:1001800084E88093BC008091BC0087FFFCCF809105
:10019000B90084E98093BC00089594EA9093BC0070
:1001A0009091BC0097FFFCCF9091B900987F983058
:1001B00009F043C08093BB0094E89093BC009091F9
:1001C000BC0097FFFCCF9091B900987F9831A9F5BA
:1001D0006093BB0094E89093BC009091BC0097FFA3
:1001E000FCCF9091B900987F983239F594EA9093BA
:1001F000BC009091BC0097FFFCCF9091B900987F14
:100200009031D9F48F5F8093BB0084E88093BC0069
:100210008091BC0087FFFCCF8091B900887F80343B
:1002200061F484E88093BC008091BC0087FFFCCF20
:100230008091B900887F883529F084E98093BC00DB
:1002400080E008958091BB0094E99093BC000895EC
:10025000EF92FF920F931F93DF93CF930F92CDB73F
:10026000DEB7182F7B0100E00BC0602F610F80ED1F
:1002700049830E94CD00F70181937F010F5F49817F
:10028000041798F30F90CF91DF911F910F91FF907A
:10029000EF900895CF92DF92FF920F931F93CF9329
:1002A000DF93182FF42EC62EE6016E01D72EE6013D
:1002B00000E007C04991602F610F80ED0E94960019
:1002C0000F5F0F15B8F3DF91CF911F910F91FF9042
:1002D000DF90CF900895CF93DF93EC0180ED60E045
:1002E0000E94CD00888387EC90E00197F1F700C071
:1002F000000080ED61E00E94CD00898387EC90E0F2
:100300000197F1F700C0000080ED62E00E94CD008F
:100310008A8387EC90E00197F1F700C0000080ED40
:1003200063E00E94CD008B8387EC90E00197F1F7AA
:1003300000C0000080ED64E00E94CD008C8387EC5B
:1003400090E00197F1F700C0000080ED65E00E94A9
:10035000CD008D8387EC90E00197F1F700C000009D
:1003600080ED66E00E94CD008E8387EC90E00197DF
:10037000F1F700C0000080ED67E00E94CD008F83A0
:1003800087EC90E00197F1F700C00000DF91CF917A
:10039000089580ED60E00E94CD00EFECF7E031972A
:1003A000F1F700C0000087FF21C080ED62E042E16C
:1003B0000E94960087EC90E00197F1F700C00000E2
:1003C00080ED61E040E00E949600E7ECF0E03197BC
:1003D000F1F700C0000080ED60E040E00E94960070
:1003E00087EC90E00197F1F700C000000895CF93EB
:1003F000DF93EC0180ED62E04A810E94960087EC79
:1004000090E00197F1F700C0000080ED61E04981C4
:100410000E94960087EC90E00197F1F700C0000081
:1004200080ED60E040E00E94960087EC90E001974C
:10043000F1F700C00000DF91CF910895CF93DF93D3
:10044000EC0180ED65E04D810E94960087EC90E024
:100450000197F1F700C0000080ED64E04C810E943C
:10046000960087EC90E00197F1F700C00000DF9163
:10047000CF910895FC0180ED66E046810E949600D0
:1004800087EC90E00197F1F700C00000089581E04B
:10049000489980E0499B82604A9B84604B9B8860BE
:1004A00008951F930E944702809302018823C9F098
:1004B000909103018917B9F02FEF30E742E0215006
:1004C00030404040E1F700C00000182F882339F089
:1004D0000E944702181719F41093030105C01092E7
:1004E00002011092030110E0812F1F9108958BB13A
:1004F0008F608BB98AB1807F8AB908950E94F90212
:100500002EE088E190E00FB6F894A8958093600003
:100510000FBE2093600078940E945B03A895FCCFE7
:1005200084B18C6284B92A9880E58CBD1DBC089585
:10053000DF93CF9300D0CDB7DEB79A838983FE01D6
:10054000319681818EBD0DB407FEFDCF80818EBDB9
:100550000DB407FEFDCF8AE18A95F1F700C02A9A13
:100560008AE18A95F1F700C02A988AE18A95F1F725
:1005700000C00F900F90CF91DF910895DF92EF921E
:10058000FF920F931F93CF93DF93EC01D62E8E85AE
:1005900090E081609A60988B8F877E0100E010E088
:1005A0001DC0853080F02FA530E0C801059702C03E
:1005B000359527958A95E2F7F7018785908920FD83
:1005C00005C08F6003C0F701878590890E9498025B
:1005D0000F5F1F4F82E090E0E80EF91E802F0D158F
:1005E00000F3DF91CF911F910F91FF90EF90DF907B
:1005F0000895CF93DF930E944F050E948A00C9E0BF
:10060000D1E0CE010E94C9010E9477020E949002AF
:10061000BE01685F7F4F88E043E00E942801BE0171
:10062000655F7F4F80E143E00E9428018FE09AE000
:1006300090931901809318018FEF99E090931B011B
:1006400080931A0185E09BE090931D0180931C012B
:1006500081E09CE090931F0180931E0180E09FE069
:10066000909321018093200181E091E090932301F8
:100670008093220182E092E09093250180932401EF
:1006800083E093E0909327018093260184E094E037
:10069000909329018093280185E095E090932B01A8
:1006A00080932A018FEF80933801CE010E941D06AE
:1006B000DF91CF9108950E94510269E071E00E949C
:1006C000FD03809104019091050123E0883E92078B
:1006D00071F4109205011092040189E091E00E94EA
:1006E000860389E091E06AE00E94BE0208950196C7
:1006F0009093050180930401089520E088369207C5
:1007000021F090933A01809339010895EF92FF927E
:10071000CF93DF93EC0180910601909107018E3118
:10072000910530F40196909307018093060109C06A
:10073000109207011092060180910001809580932C
:100740000001E0913901F0913A013896E491E630E8
:1007500009F44BC0E73070F4E33049F1E43020F4A1
:10076000E23009F045C014C0E43081F1E53009F011
:100770003FC03BC0E930C9F1EA3028F4E730A9F1C5
:10078000E830B1F532C0EA3081F1EB3089F52DC0A7
:10079000CE010E946B018FEF8FA7CE010E941D0634
:1007A000BE01675E7F4FCE010E94560521C0CE017B
:1007B0000E946B018FEF8FA7CE010E941D06BE0124
:1007C000675E7F4FCE010E94820512C0CE010E945B
:1007D0006B018FEF8FA7CE010E941D06BE01675EE1
:1007E0007F4FCE010E94AE0503C0809100018FA70C
:1007F000DF91CF91FF90EF900895CF93DF93EB01BE
:10080000833009F431C1843030F4813059F08230C2
:1008100009F042C188C0843009F4DEC08C3009F090
:100820003BC12EC18091390190913A01FC0138966B
:10083000E491E63079F1E73078F4E33019F1E4300F
:1008400020F4E23009F028C119C0E43009F468C08E
:10085000E53009F021C11AC0E93009F437C0EA30A7
:1008600030F4E730E9F0E83009F016C11FC0EA3093
:1008700009F440C0EB3009F00FC14CC0FC012591D8
:100880003491FCC0FC0125913491F8C0CB010E9449
:10089000F70146C0CB010E941E028CE790E0FAC02F
:1008A000CB010E943A0286E890E0F4C0675E7F4F79
:1008B000CE0108960E94D405CE010E941D06E0914B
:1008C0003901F0913A0125913491D8C0685F7F4F8A
:1008D00088E043E00E944A01BE01675E7F4FCE017F
:1008E0000B960E940006E0913901F0913A012591A2
:1008F0003491C4C0675E7F4FCE010B960E94D40531
:10090000CE010E941D06E0913901F0913A01259136
:100910003491B4C0655F7F4F80E143E00E944A019B
:1009200082E790E0B7C0E0913901F0913A01389642
:10093000E491E830D9F1E93040F4E630A9F0E7304D
:10094000D0F4E53009F0A8C008C0EA30C9F1EA30B7
:10095000F8F0EB3009F0A0C022C0898160E049E5E1
:100960000E944206898352C08D8161E042E10E946B
:1009700042068D8358C08E8160E049E90E9442069C
:100980008E83BE01675E7F4FCE010E94AE0584C09C
:10099000898560E049E50E944206898751C08C85BF
:1009A00060E049E50E9442068C8756C08A858E5FCA
:1009B0008F708A878E87675E7F4FCE01089609C049
:1009C0008D858E5F8F708D878E87675E7F4FCE019E
:1009D0000B960E94000660C0E0913901F0913A0147
:1009E0003896E491E630C9F0E73020F4E53009F0BC
:1009F00053C006C0E930F1F0EB3009F04DC026C01D
:100A00008A8160E043E20E9442068A83BE01675EFB
:100A10007F4FCE010E9456053FC08C8161E041E3CB
:100A20000E9442068C83BE01675E7F4FCE010E940A
:100A3000820532C0888561E041E10E9442068887D4
:100A4000BE01675E7F4FCE0108960BC08B8562E1C9
:100A500043E20E9442068B87BE01675E7F4FCE0154
:100A60000B960E94D40518C0CB010E946B01E09147
:100A70003901F0913A01369625913491C9010AC0A5
:100A80008A858E87675E7F4FCE0108960E9400069A
:100A900080E990E00E947D03DF91CF91089582E785
:100AA00090E090933A01809339010895FC01DB01B5
:100AB000828182958F7090E0956011969C938E93C1
:100AC000828190E08F709070946013969C938E93C7
:100AD00012978AE093E015969C938E9314978181E8
:100AE00082958F7090E0926017969C938E931697E4
:100AF000818190E08F709070916019969C938E9395
:100B000018970895FC01DB01848182958F7090E035
:100B1000956011969C938E93848190E08F70907075
:100B2000946013969C938E9312978FEF93E0159693
:100B30009C938E931497858182958F7090E092603C
:100B400017969C938E931697858190E08F70907086
:100B5000916019969C938E9318970895FC01DB0180
:100B60008FE095E011969C938E9382E094E013962B
:100B70009C938E93129780E093E015969C938E93AE
:100B80001497868182958F7090E0926017969C935F
:100B90008E931697868190E08F7090709160199671
:100BA0009C938E9318970895FC01DB0180818295B8
:100BB0008F7090E0956011969C938E93808190E069
:100BC0008F709070946013969C938E9312978AE026
:100BD00093E015969C938E931497818182958F70E4
:100BE00090E0926017969C938E931697818190E087
:100BF0008F709070916019969C938E9318970895BA
:100C0000FB012FE035E0318320832FE034E0338394
:100C100022832FE033E0358324832FE032E03783D3
:100C20002683DC0112968C911297869590E08F7046
:100C300090709160918780870895FC018085815034
:100C40008B3010F08BE0808783858C508C3010F0D7
:100C500087E1838782819085891741F4218191857D
:100C6000291721F49285268529139687938589175C
:100C700041F491818485981721F485859685981390
:100C800086870895282F30E02F7030702930310585
:100C900014F48F5F02C0805F807F861708F4862F70
:0C0CA000481708F4862F0895F894FFCF41
:020CAC00FF0047
:00000001FF
