:100000000C945C000C946E000C946E000C946E00CA
:100010000C946E000C946E000C946E000C946E00A8
:100020000C946E000C946E000C946E000C946E0098
:100030000C946E000C946E000C946E000C946E0088
:100040000C946E000C946E000C946E000C946E0078
:100050000C946E000C946E000C946E000C946E0068
:100060000C946E000C946E00000000000000000074
:1000700000007C00680068009A00020086007200A0
:100080006800A400030090007C006800AE0004003B
:100090006800860068006800080068006800720058
:1000A00068000500680068007C00680006006800C1
:1000B000680086006800070011241FBECFEFD4E05F
:1000C000DEBFCDBF11E0A0E0B1E001C01D92A233C0
:1000D000B107E1F70E9423020C9447040C9400003E
:1000E00088B1806388B987B18F7C87B980E28093BB
:1000F000B8001092B900089594EA9093BC009091D2
:10010000BC0097FFFCCF9091B900987F983039F5EB
:100110008093BB0084E88093BC008091BC0087FF83
:10012000FCCF8091B900887F8831C9F46093BB000F
:1001300084E88093BC008091BC0087FFFCCF809155
:10014000B900887F883259F44093BB0084E88093DB
:10015000BC008091BC0087FFFCCF8091B90084E98E
:100160008093BC00089594EA9093BC009091BC00E9
:1001700097FFFCCF9091B900987F983009F043C069
:100180008093BB0094E89093BC009091BC0097FFD3
:10019000FCCF9091B900987F9831A9F56093BB008E
:1001A00094E89093BC009091BC0097FFFCCF909195
:1001B000B900987F983239F594EA9093BC009091F9
:1001C000BC0097FFFCCF9091B900987F9031D9F493
:1001D0008F5F8093BB0084E88093BC008091BC005B
:1001E00087FFFCCF8091B900887F803461F484E878
:1001F0008093BC008091BC0087FFFCCF8091B90048
:10020000887F883529F084E98093BC0080E00895D8
:100210008091BB0094E99093BC000895CF93DF9345
:10022000EC0180ED60E00E94B300888387EC90E0F1
:100230000197F1F700C0000080ED61E00E94B3007B
:10024000898387EC90E00197F1F700C0000080ED12
:1002500062E00E94B3008A8387EC90E00197F1F797
:1002600000C0000080ED63E00E94B3008B8387EC48
:1002700090E00197F1F700C0000080ED64E00E947B
:10028000B3008C8387EC90E00197F1F700C0000089
:1002900080ED65E00E94B3008D8387EC90E00197CC
:1002A000F1F700C0000080ED66E00E94B3008E838D
:1002B00087EC90E00197F1F700C0000080ED67E067
:1002C0000E94B3008F8387EC90E00197F1F700C0A4
:1002D0000000DF91CF91089580ED60E00E94B300AF
:1002E000EFECF7E03197F1F700C0000087FF21C085
:1002F00080ED62E042E10E947C0087EC90E0019793
:10030000F1F700C0000080ED61E040E00E947C0059
:10031000E7ECF0E03197F1F700C0000080ED60E01D
:1003200040E00E947C0087EC90E00197F1F700C06C
:1003300000000895CF93DF93EC0180ED62E04A81E5
:100340000E947C0087EC90E00197F1F700C000006C
:1003500080ED61E049810E947C0087EC90E001978C
:10036000F1F700C0000080ED60E040E00E947C00FA
:1003700087EC90E00197F1F700C00000DF91CF918A
:100380000895CF93DF93EC0180ED65E04D810E94ED
:100390007C0087EC90E00197F1F700C0000080ED51
:1003A00064E04C810E947C0087EC90E00197F1F7BB
:1003B00000C00000DF91CF910895FC0180ED66E060
:1003C00046810E947C0087EC90E00197F1F700C025
:1003D0000000089549B14F70409300014F3011F172
:1003E000809101014817F1F08FEC97E00197F1F748
:1003F00000C000004F3079F089B1242F30E090E048
:100400008F7090702817390731F44093010181E013
:10041000442361F005C08FE08093000180930101C7
:1004200080E008958FE08093010180E008958BB112
:100430008F608BB98AB1807F8AB98FE08093000189
:100440008093010108950E948D0278940E94D90240
:10045000FDCF84B18C6284B92A9880E58CBD81E09F
:100460008DBD0895DF93CF9300D0CDB7DEB79A83CB
:100470008983FE01319681818EBD0DB407FEFDCFCB
:1004800080818EBD0DB407FEFDCF8AE18A95F1F71C
:1004900000C02A9A8AE18A95F1F700C02A988AE179
:1004A0008A95F1F700C00F900F90CF91DF910895DA
:1004B000DF92EF92FF920F931F93CF93DF93D62E8D
:1004C000082F192FC0E0D0E0E42EFF241BC0853098
:1004D00088F09E0125503040C70102C09595879550
:1004E0002A95E2F79C01F8018081918120FD05C0E9
:1004F0008F6003C0F801808191810E9432022196B1
:100500000E5F1F4F8C2FCD1510F3DF91CF911F91F0
:100510000F91FF90EF90DF9008950E94C2030E9418
:10052000700085E091E00E946C010E9417020E9419
:1005300029028FE09AE09093100180930F018FEFD2
:1005400099E0909312018093110185E09BE09093D4
:1005500014018093130181E09CE090931601809335
:10056000150180E09FE0909318018093170181E0CE
:1005700091E090931A018093190182E092E09093A8
:100580001C0180931B0183E093E090931E018093F4
:100590001D0184E094E09093200180931F0185E089
:1005A00095E090932201809321018FEF80932F019A
:1005B00008950E94EA0165E071E00E944503809180
:1005C00002019091030123E0883E920781F410928A
:1005D00003011092020185E091E00E9406038FE082
:1005E00091E06AE040912F010E945802089501961F
:1005F0009093030180930201089520E088369207CA
:1006000021F090933101809330010895EF92FF9291
:10061000CF93DF93EC01E0913001F09131013896F6
:10062000E491E53059F1E63038F4E330A9F0E430F4
:10063000E0F4E23029F507C0E73001F1E730F0F0EF
:10064000E830F1F41BC00E940E01BE016C5E7F4FCA
:10065000CE010E94C90314C00E940E01BE016C5E4F
:100660007F4FCE010E94F5030BC00E940E01BE0118
:100670006C5E7F4FCE010E94210402C08FEF8AA7DB
:10068000DF91CF91FF90EF900895282FCB01243078
:1006900009F453C0253030F4213059F0233009F0EB
:1006A00070C034C0253009F457C0263009F069C045
:1006B0005EC02091300130913101F9013896E4910A
:1006C000E430C1F0E53030F4E23061F0E33009F0BD
:1006D00058C00CC0E630A1F0E63078F0E73009F001
:1006E00050C011C0F901259134913DC0F901259107
:1006F000349139C082E790E037C00E949A01089592
:100700000E94C10108950E94DD0108958091300189
:1007100090913101FC013896E491E53029F0E53003
:1007200038F0E93028F40895FC01259134911BC07C
:100730000296FC012591349116C080913001909170
:100740003101FC013896E491E550E430D0F0029696
:10075000FC012591349107C0E0913001F091310105
:10076000369625913491C9010E94FD020895E091C9
:100770003001F0913101349625913491C9010E94E4
:10078000FD02089582E790E090933101809330015B
:100790000895FC01DB01828182958F7090E0956065
:1007A00011969C938E93828190E08F7090709460EC
:1007B00013969C938E9312978AE093E015969C93E0
:1007C0008E931497818182958F7090E09260179636
:1007D0009C938E931697818190E08F7090709160BA
:1007E00019969C938E9318970895FC01DB018481E0
:1007F00082958F7090E0956011969C938E93848182
:1008000090E08F709070946013969C938E931297E3
:100810008FEF93E015969C938E9314978581829524
:100820008F7090E0926017969C938E9316978581B7
:1008300090E08F709070916019969C938E931897AA
:100840000895FC01DB018FE095E011969C938E9357
:1008500082E094E013969C938E93129780E093E04D
:1008600015969C938E931497868182958F7090E055
:10087000926017969C938E931697868190E08F7066
:100880009070916019969C938E9318970895F894A0
:02089000FFCF98
:00000001FF
