:100000000C946B000C9488000C9488000C9488006D
:100010000C9488000C9488000C9488000C94880040
:100020000C9488000C9488000C9488000C94880030
:100030000C9488000C9488000C9488000C94880020
:100040000C9488000C9488000C9488000C94880010
:100050000C9488000C9488000C9488000C94880000
:100060000C9488000C948800000000000000000040
:1000700000007C0068006800B80002008600720082
:100080006800C200030090007C006800CC000400FF
:100090009A008600680068000800A40090006800CC
:1000A00068000900AE009A00680068000A00680055
:1000B000A400680068000B00680068007200680017
:1000C0000500680068007C006800060068006800A1
:1000D00086006800070011241FBECFEFD4E0DEBF0A
:1000E000CDBF11E0A0E0B1E0ECE3FBE002C0059081
:1000F0000D92A230B107D9F711E0A2E0B1E001C042
:100100001D92AB33B107E1F70E943B020C949C05B2
:100110000C94000088B1806388B987B18F7C87B95F
:1001200080E28093B8001092B900089594EA909309
:10013000BC009091BC0097FFFCCF9091B900987FD4
:10014000983039F58093BB0084E88093BC0080919F
:10015000BC0087FFFCCF8091B900887F8831C9F44B
:100160006093BB0084E88093BC008091BC0087FF53
:10017000FCCF8091B900887F883259F44093BB004E
:1001800084E88093BC008091BC0087FFFCCF809105
:10019000B90084E98093BC00089594EA9093BC0070
:1001A0009091BC0097FFFCCF9091B900987F983058
:1001B00009F043C08093BB0094E89093BC009091F9
:1001C000BC0097FFFCCF9091B900987F9831A9F5BA
:1001D0006093BB0094E89093BC009091BC0097FFA3
:1001E000FCCF9091B900987F983239F594EA9093BA
:1001F000BC009091BC0097FFFCCF9091B900987F14
:100200009031D9F48F5F8093BB0084E88093BC0069
:100210008091BC0087FFFCCF8091B900887F80343B
:1002200061F484E88093BC008091BC0087FFFCCF20
:100230008091B900887F883529F084E98093BC00DB
:1002400080E008958091BB0094E99093BC000895EC
:10025000CF93DF93EC0180ED60E00E94CD008883B6
:1002600087EC90E00197F1F700C0000080ED61E0BD
:100270000E94CD00898387EC90E00197F1F700C0E0
:10028000000080ED62E00E94CD008A8387EC90E060
:100290000197F1F700C0000080ED63E00E94CD00FF
:1002A0008B8387EC90E00197F1F700C0000080EDB0
:1002B00064E00E94CD008C8387EC90E00197F1F719
:1002C00000C0000080ED65E00E94CD008D8387ECCA
:1002D00090E00197F1F700C0000080ED66E00E9419
:1002E000CD008E8387EC90E00197F1F700C000000D
:1002F00080ED67E00E94CD008F8387EC90E001974E
:10030000F1F700C00000DF91CF91089580ED60E02B
:100310000E94CD00EFECF7E03197F1F700C000004C
:1003200087FF21C080ED62E042E10E94960087ECE9
:1003300090E00197F1F700C0000080ED61E040E03F
:100340000E949600E7ECF0E03197F1F700C0000062
:1003500080ED60E040E00E94960087EC90E001971D
:10036000F1F700C000000895CF93DF93EC0180ED1A
:1003700062E04A810E94960087EC90E00197F1F7D5
:1003800000C0000080ED61E049810E94960087EC8A
:1003900090E00197F1F700C0000080ED60E040E0E0
:1003A0000E94960087EC90E00197F1F700C00000F2
:1003B000DF91CF910895CF93DF93EC0180ED65E05D
:1003C0004D810E94960087EC90E00197F1F700C004
:1003D000000080ED64E04C810E94960087EC90E084
:1003E0000197F1F700C00000DF91CF910895FC0163
:1003F00080ED66E046810E94960087EC90E00197D0
:10040000F1F700C00000089581E0489980E0499B21
:1004100082604A9B84604B9B886008951F930E9472
:100420000402809302018823C9F090910301891787
:10043000B9F02FEF30E742E0215030404040E1F783
:1004400000C00000182F882339F00E9404021817FA
:1004500019F41093030105C01092020110920301D8
:1004600010E0812F1F9108958BB18F608BB98AB1F5
:10047000807F8AB908950E94AA020E94F902FDCFE6
:1004800084B18C6284B92A9880E58CBD81E08DBDF1
:100490000895DF93CF9300D0CDB7DEB79A838983D9
:1004A000FE01319681818EBD0DB407FEFDCF8081A6
:1004B0008EBD0DB407FEFDCF8AE18A95F1F700C02D
:1004C0002A9A8AE18A95F1F700C02A988AE18A95EA
:1004D000F1F700C00F900F90CF91DF910895DF9258
:1004E000EF92FF920F931F93CF93DF93EC01D62EE1
:1004F0008E8590E081609A609E8B8D8B7E0100E0FE
:1005000010E01DC0853080F02FA530E0C8010597B0
:1005100002C0359527958A95E2F7F701878590897E
:1005200020FD05C08F6003C0F701878590890E9478
:1005300049020F5F1F4F82E090E0E80EF91E802F06
:100540000D1500F3DF91CF911F910F91FF90EF9068
:10055000DF9008950E94BC040E948A0089E091E027
:100560000E9486010E9434020E9440028FE09AE0BD
:1005700090931901809318018FEF99E090931B01DC
:1005800080931A0185E09BE090931D0180931C01EC
:1005900081E09CE090931F0180931E0180E09FE02A
:1005A000909321018093200181E091E090932301B9
:1005B0008093220182E092E09093250180932401B0
:1005C00083E093E0909327018093260184E094E0F8
:1005D000909329018093280185E095E090932B0169
:1005E00080932A018FE0809317018FEF8093380169
:1005F00008950E940E0269E071E00E9485038091D7
:1006000004019091050123E0883E920771F4109255
:1006100005011092040189E091E00E94240389E021
:1006200091E06AE00E946F0208950196909305019F
:1006300080930401089520E08836920721F090937A
:100640003A01809339010895EF92FF92CF93DF939F
:10065000EC0180910601909107018E31910530F4F3
:100660000196909307018093060109C0109207013B
:100670001092060180910001809580930001E09125
:100680003901F0913A013896E491E530B1F1E63064
:1006900038F4E330D1F0E43020F5E23089F509C0D8
:1006A000E73059F1E73048F1E93039F1EB3041F505
:1006B00024C0CE010E9428018FEF8FA7BE01675E84
:1006C0007F4FCE010E94C3041BC0CE010E942801AF
:1006D0008FEF8FA7BE01675E7F4FCE010E94EF04B0
:1006E0000FC0CE010E9428018FEF8FA7BE01675E69
:1006F0007F4FCE010E941B0503C0809100018FA790
:10070000DF91CF91FF90EF900895CF93DF93EB01AE
:10071000833009F416C1843030F4813071F08230B6
:1007200009F027C15BC0883009F403C18C3009F49B
:1007300014C1843009F01DC1B0C08091390190917D
:100740003A01FC013896E491E63069F1E73078F43B
:10075000E33009F1E43020F4E23009F00AC117C0B7
:10076000E43009F438C0E53009F003C118C0E930BD
:1007700051F1EA3030F4E730E1F0E83009F0F9C047
:100780001EC0EA3021F1EB3009F0F3C024C0FC01B7
:1007900025913491E0C0FC0125913491DCC0CB015E
:1007A0000E94B40118C0CB010E94DB018CE790E0ED
:1007B000DEC0CB010E94F70186E890E0D8C0FC01C2
:1007C00025913491C8C0FC0125913491C4C0FC012D
:1007D00025913491C0C082E790E0C9C08091390171
:1007E00090913A01FC013896E491E830D9F1E93072
:1007F00040F4E630A9F0E730D0F4E53009F048C025
:1008000008C0EA30C9F1EA30F8F0EB3009F040C036
:1008100022C0898160E049E50E948A05898356C02B
:100820008D8161E042E10E948A058D835CC08E81EA
:1008300060E049E90E948A058E83BE01675E7F4FB2
:10084000CE010E941B0595C0898560E049E50E94A4
:100850008A05898755C08C8560E049E50E948A0534
:100860008C875AC08A858E5F8F708A878E87675E75
:100870007F4FCE01089609C08D858E5F8F708D8762
:100880008E87675E7F4FCE010B960E946D0571C00B
:100890000296FC01259134915EC0809139019091BE
:1008A0003A01FC013896E491E630B9F0E73018F4EB
:1008B000E530D1F505C0E930E9F0EB30A9F526C007
:1008C0008A8160E043E20E948A058A83BE01675EF6
:1008D0007F4FCE010E94C3044CC08C8161E041E394
:1008E0000E948A058C83BE01675E7F4FCE010E9405
:1008F000EF043FC0888560E049E50E948A0588874B
:10090000BE01675E7F4FCE0108960BC08B8560E00D
:1009100049E50E948A058B87BE01675E7F4FCE0145
:100920000B960E94410525C00296FC012591349149
:1009300012C0E0913901F0913A0134962591349139
:100940000AC0CB010E942801E0913901F0913A01DF
:10095000369625913491C9010AC08A858E87675ED3
:100960007F4FCE0108960E946D0580E990E00E94BD
:100970001B03DF91CF91089582E790E090933A01B5
:10098000809339010895FC01DB01828182958F708B
:1009900090E0956011969C938E93828190E08F7089
:1009A0009070946013969C938E9312978AE093E0D4
:1009B00015969C938E931497818182958F7090E009
:1009C000926017969C938E931697818190E08F701A
:1009D0009070916019969C938E9318970895FC01DE
:1009E000DB01848182958F7090E0956011969C93D5
:1009F0008E93848190E08F709070946013969C9396
:100A00008E9312978FEF93E015969C938E93149785
:100A1000858182958F7090E0926017969C938E935B
:100A20001697858190E08F709070916019969C93D5
:100A30008E9318970895FC01DB018FE095E01196E5
:100A40009C938E9382E094E013969C938E931297DE
:100A500080E093E015969C938E93149786818295FF
:100A60008F7090E0926017969C938E931697868174
:100A700090E08F709070916019969C938E93189768
:100A80000895FC01DB01808182958F7090E0956074
:100A900011969C938E93808190E08F7090709460FB
:100AA00013969C938E9312978AE093E015969C93ED
:100AB0008E931497818182958F7090E09260179643
:100AC0009C938E931697818190E08F7090709160C7
:100AD00019969C938E9318970895FB012FE035E0AB
:100AE000318320832FE034E0338322832FE033E00F
:100AF000358324832FE032E037832683DC0112968E
:100B00008C911297869590E08F709070916091878C
:100B100080870895282F30E02F70307029303105FC
:100B200014F48F5F02C0805F807F861708F4862FE1
:0C0B3000481708F4862F0895F894FFCFB2
:020B3C00FF00B8
:00000001FF
