:100000000C9461000C9473000C9473000C947300B6
:100010000C9473000C9473000C9473000C94730094
:100020000C9473000C9473000C9473000C94730084
:100030000C9473000C9473000C9473000C94730074
:100040000C9473000C9473000C9473000C94730064
:100050000C9473000C9473000C9473000C94730054
:100060000C9473000C94730000000000000000006A
:1000700000007C0068006800A40002008600720096
:100080006800AE00030090007C006800B800040027
:100090009A00860068006800080068009000680008
:1000A00068000900680068007200680005006800C8
:1000B00068007C0068000600680068008600680030
:1000C000070011241FBECFEFD4E0DEBFCDBF11E08B
:1000D000A0E0B1E001C01D92A633B107E1F70E9494
:1000E00026020C948D040C94000088B1806388B9BA
:1000F00087B18F7C87B980E28093B8001092B900F5
:10010000089594EA9093BC009091BC0097FFFCCFB7
:100110009091B900987F983039F58093BB0084E8BE
:100120008093BC008091BC0087FFFCCF8091B90018
:10013000887F8831C9F46093BB0084E88093BC0059
:100140008091BC0087FFFCCF8091B900887F883206
:1001500059F44093BB0084E88093BC008091BC00BC
:1001600087FFFCCF8091B90084E98093BC0008959B
:1001700094EA9093BC009091BC0097FFFCCF9091C3
:10018000B900987F983009F043C08093BB0094E891
:100190009093BC009091BC0097FFFCCF9091B90068
:1001A000987F9831A9F56093BB0094E89093BC00C8
:1001B0009091BC0097FFFCCF9091B900987F983246
:1001C00039F594EA9093BC009091BC0097FFFCCF66
:1001D0009091B900987F9031D9F48F5F8093BB00E4
:1001E00084E88093BC008091BC0087FFFCCF8091A5
:1001F000B900887F803461F484E88093BC008091EA
:10020000BC0087FFFCCF8091B900887F883529F03A
:1002100084E98093BC0080E008958091BB0094E95C
:100220009093BC000895CF93DF93EC0180ED60E0E4
:100230000E94B800888387EC90E00197F1F700C036
:10024000000080ED61E00E94B800898387EC90E0B7
:100250000197F1F700C0000080ED62E00E94B80055
:100260008A8387EC90E00197F1F700C0000080EDF1
:1002700063E00E94B8008B8387EC90E00197F1F770
:1002800000C0000080ED64E00E94B8008C8387EC21
:1002900090E00197F1F700C0000080ED65E00E945A
:1002A000B8008D8387EC90E00197F1F700C0000063
:1002B00080ED66E00E94B8008E8387EC90E00197A5
:1002C000F1F700C0000080ED67E00E94B8008F8366
:1002D00087EC90E00197F1F700C00000DF91CF912B
:1002E000089580ED60E00E94B800EFECF7E03197F0
:1002F000F1F700C0000087FF21C080ED62E042E11D
:100300000E94810087EC90E00197F1F700C00000A7
:1003100080ED61E040E00E948100E7ECF0E0319781
:10032000F1F700C0000080ED60E040E00E94810035
:1003300087EC90E00197F1F700C000000895CF939B
:10034000DF93EC0180ED62E04A810E94810087EC3E
:1003500090E00197F1F700C0000080ED61E0498175
:100360000E94810087EC90E00197F1F700C0000047
:1003700080ED60E040E00E94810087EC90E0019712
:10038000F1F700C00000DF91CF910895CF93DF9384
:10039000EC0180ED65E04D810E94810087EC90E0EA
:1003A0000197F1F700C0000080ED64E04C810E94ED
:1003B000810087EC90E00197F1F700C00000DF9129
:1003C000CF910895FC0180ED66E046810E94810096
:1003D00087EC90E00197F1F700C00000089581E0FC
:1003E000489980E0499B82604A9B84604B9B88606F
:1003F00008951F930E94EF01809300018823C9F0A4
:10040000909101018917B9F02FEF30E742E02150B8
:1004100030404040E1F700C00000182F882339F039
:100420000E94EF01181719F41093010105C01092F2
:1004300000011092010110E0812F1F9108958BB1EE
:100440008F608BB98AB1807F8AB908950E948F022C
:100450000E94DB02FDCF84B18C6284B92A9880E5CA
:100460008CBD81E08DBD0895DF93CF9300D0CDB7D3
:10047000DEB79A838983FE01319681818EBD0DB4EA
:1004800007FEFDCF80818EBD0DB407FEFDCF8AE152
:100490008A95F1F700C02A9A8AE18A95F1F700C09F
:1004A0002A988AE18A95F1F700C00F900F90CF91BA
:1004B000DF910895DF92EF92FF920F931F93CF93F6
:1004C000DF93D62E082F192FC0E0D0E0E42EFF24B2
:1004D0001BC0853088F09E0125503040C70102C006
:1004E000959587952A95E2F79C01F8018081918185
:1004F00020FD05C08F6003C0F801808191810E94BA
:10050000340221960E5F1F4F8C2FCD1510F3DF9113
:10051000CF911F910F91FF90EF90DF9008950E946F
:10052000F6030E94750085E091E00E9471010E942F
:100530001F020E942B028FE09AE090931401809397
:1005400013018FEF99E0909316018093150185E0D8
:100550009BE0909318018093170181E09CE09093B9
:100560001A018093190180E09FE090931C01809311
:100570001B0181E091E090931E0180931D0182E0B8
:1005800092E09093200180931F0183E093E0909389
:1005900022018093210184E094E0909324018093D0
:1005A000230185E095E090932601809325018FEF4C
:1005B0008093330108950E94F90165E071E00E9483
:1005C0004F03809102019091030123E0883E92073E
:1005D00081F4109203011092020185E091E00E94E3
:1005E000080383E191E06AE0409133010E945A02DE
:1005F000089501969093030180930201089520E0ED
:100600008836920721F09093350180933401089544
:10061000EF92FF92CF93DF93EC01E0913401F091E0
:1006200035013896E491E53099F1E63038F4E3305D
:10063000C9F0E43010F5E23069F509C0E73041F166
:10064000E73030F1E83021F1E93021F521C00E9496
:1006500013018FEF8EA7BE01685E7F4FCE010E940F
:10066000FD0318C00E9413018FEF8EA7BE01685EC4
:100670007F4FCE010E9429040DC00E9413018FEF0D
:100680008EA7BE01685E7F4FCE010E94550402C056
:100690008FEF8EA7DF91CF91FF90EF900895CF93CA
:1006A000DF93EB01833009F48EC0843030F4813065
:1006B00071F0823009F097C03DC0883009F474C0F1
:1006C0008C3009F48CC0843009F08DC04DC080910D
:1006D000340190913501FC013896E491E430D9F071
:1006E000E53030F4E23061F0E33009F07CC00CC05A
:1006F000E630A1F0E63060F0E73009F074C014C0D5
:10070000FC012591349169C0FC012591349165C0AB
:10071000CB010E949F0182E790E063C0CB010E9461
:10072000C6018CE790E05DC0CB010E94E20186E843
:1007300090E057C08091340190913501FC013896CA
:10074000E491E53029F0E53050F0EA3040F44BC058
:10075000898160E049E50E947B04898319C0029683
:10076000FC012591349139C080913401909135017B
:10077000FC013896E491E53029F0E53080F0EA306C
:1007800070F431C08A8160E043E20E947B048A8376
:10079000BE01685E7F4FCE010E94FD0324C0029619
:1007A000FC012591349119C080913401909135015B
:1007B000FC013896E491E550E530A8F00296FC0182
:1007C000259134910AC0CB010E941301E0913401BC
:1007D000F0913501369625913491C90102C080E926
:1007E00090E00E94FF02DF91CF91089582E790E0B0
:1007F00090933501809334010895FC01DB018281DF
:1008000082958F7090E0956011969C938E93828173
:1008100090E08F709070946013969C938E931297D3
:100820008AE093E015969C938E931497818182952C
:100830008F7090E0926017969C938E9316978181AB
:1008400090E08F709070916019969C938E9318979A
:100850000895FC01DB01848182958F7090E09560A2
:1008600011969C938E93848190E08F709070946029
:1008700013969C938E9312978FEF93E015969C930B
:100880008E931497858182958F7090E09260179671
:100890009C938E931697858190E08F7090709160F5
:1008A00019969C938E9318970895FC01DB018FE0B5
:1008B00095E011969C938E9382E094E013969C931E
:1008C0008E93129780E093E015969C938E931497E5
:1008D000868182958F7090E0926017969C938E939C
:1008E0001697868190E08F709070916019969C9316
:1008F0008E9318970895282F30E02F70307029308C
:10090000310514F48F5F02C0805F807F861708F482
:0E091000862F481708F4862F0895F894FFCF1D
:00000001FF
