:100000000C945D000C947A000C947A000C947A00A5
:100010000C947A000C947A000C947A000C947A0078
:100020000C947A000C947A000C947A000C947A0068
:100030000C947A000C947A000C947A000C947A0058
:100040000C947A000C947A000C947A000C947A0048
:100050000C947A000C947A000C947A000C947A0038
:100060000C947A000C947A0000000000000000005C
:100070000000007D00690069009B0002008700739A
:10008000006900A500030091007D006900AF000435
:100090000069008700690069000800690069007351
:1000A0000069000500690069007D006900060069BB
:1000B0000069008700690007000011241FBECFEF10
:1000C000D4E0DEBFCDBF11E0A0E0B1E0ECEDF7E0A1
:1000D00002C005900D92A230B107D9F711E0A2E05D
:1000E000B1E001C01D92A533B107E1F70E942D02D6
:1000F0000C94EC030C94000088B1806388B987B13C
:100100008F7C87B980E28093B8001092B90008957F
:1001100094EA9093BC009091BC0097FFFCCF909123
:10012000B900987F983039F58093BB0084E88093BC
:10013000BC008091BC0087FFFCCF8091B900887F14
:100140008831C9F46093BB0084E88093BC0080913F
:10015000BC0087FFFCCF8091B900887F883259F4BA
:100160004093BB0084E88093BC008091BC0087FF73
:10017000FCCF8091B90084E98093BC00089594EA93
:100180009093BC009091BC0097FFFCCF9091B90078
:10019000987F983009F043C08093BB0094E8909317
:1001A000BC009091BC0097FFFCCF9091B900987F64
:1001B0009831A9F56093BB0094E89093BC009091AE
:1001C000BC0097FFFCCF9091B900987F983239F529
:1001D00094EA9093BC009091BC0097FFFCCF909163
:1001E000B900987F9031D9F48F5F8093BB0084E889
:1001F0008093BC008091BC0087FFFCCF8091B90048
:10020000887F803461F484E88093BC008091BC00D6
:1002100087FFFCCF8091B900887F883529F084E979
:100220008093BC0080E008958091BB0094E9909396
:10023000BC000895CF93DF93EC0180ED60E00E9455
:10024000BF00888387EC90E00197F1F700C00000C1
:1002500080ED61E00E94BF00898387EC90E0019708
:10026000F1F700C0000080ED62E00E94BF008A83C9
:1002700087EC90E00197F1F700C0000080ED63E0AB
:100280000E94BF008B8387EC90E00197F1F700C0DC
:10029000000080ED64E00E94BF008C8387EC90E05A
:1002A0000197F1F700C0000080ED65E00E94BF00FB
:1002B0008D8387EC90E00197F1F700C0000080ED9E
:1002C00066E00E94BF008E8387EC90E00197F1F713
:1002D00000C0000080ED67E00E94BF008F8387ECC4
:1002E00090E00197F1F700C00000DF91CF910895F1
:1002F00080ED60E00E94BF00EFECF7E03197F1F78E
:1003000000C0000087FF21C080ED62E042E10E9452
:10031000880087EC90E00197F1F700C0000080EDC5
:1003200061E040E00E948800E7ECF0E03197F1F7EF
:1003300000C0000080ED60E040E00E94880087EC93
:1003400090E00197F1F700C000000895CF93DF938C
:10035000EC0180ED62E04A810E94880087EC90E029
:100360000197F1F700C0000080ED61E049810E9433
:10037000880087EC90E00197F1F700C0000080ED65
:1003800060E040E00E94880087EC90E00197F1F780
:1003900000C00000DF91CF910895CF93DF93EC016F
:1003A00080ED65E04D810E94880087EC90E0019728
:1003B000F1F700C0000080ED64E04C810E948800ED
:1003C00087EC90E00197F1F700C00000DF91CF913A
:1003D0000895FC0180ED66E046810E94880087EC6C
:1003E00090E00197F1F700C00000089589B1807F87
:1003F00080930201803FF1F0909103018917D1F0C1
:10040000EFECF7E03197F1F700C00000803F71F0AA
:1004100029B1482F50E030E0207F30704217530759
:1004200029F480930301882359F409C080EF809355
:10043000020101C080EF8093030180E0089581E014
:1004400008958BB1806F8BB98AB18F708AB980EFB4
:10045000809302018093030108950E94970278948B
:100460000E94E302FDCF84B18C6284B92A9880E5B2
:100470008CBD81E08DBD0895DF93CF9300D0CDB7C3
:10048000DEB79A838983FE01319681818EBD0DB4DA
:1004900007FEFDCF80818EBD0DB407FEFDCF8AE142
:1004A0008A95F1F700C02A9A8AE18A95F1F700C08F
:1004B0002A988AE18A95F1F700C00F900F90CF91AA
:1004C000DF910895DF92EF92FF920F931F93CF93E6
:1004D000DF93D62E082F192FC0E0D0E0E42EFF24A2
:1004E0001BC0853088F09E0125503040C70102C0F6
:1004F000959587952A95E2F79C01F8018081918175
:1005000020FD05C08F6003C0F801808191810E94A9
:100510003C0221960E5F1F4F8C2FCD1510F3DF91FB
:10052000CF911F910F91FF90EF90DF9008950E945F
:10053000B7030E947C0088E091E00E9478010E944D
:1005400021020E9433028FE09AE09093130180937E
:1005500012018FEF99E0909315018093140185E0CB
:100560009BE0909317018093160181E09CE09093AB
:1005700019018093180180E09FE090931B01809304
:100580001A0181E091E090931D0180931C0182E0AB
:1005900092E090931F0180931E0183E093E090937B
:1005A00021018093200184E094E0909323018093C3
:1005B000220185E095E090932501809324018FEF3F
:1005C0008093320108950E94F60168E071E00E9474
:1005D0005403809104019091050123E0883E920725
:1005E00081F4109205011092040188E091E00E94CC
:1005F000100382E191E06AE0409132010E946202C0
:10060000089501969093050180930401089520E0D8
:100610008936920721F09093340180933301089535
:10062000EF92FF92CF93DF93EC0180910001823033
:1006300020F48F5F8093000109C081E09091060152
:10064000911180E08093060110920001E091330146
:10065000F09134013896E491E33071F0E430B1F078
:10066000E230E9F4CE010E941A01BE01665F7F4FBD
:10067000CE010E94BE0313C0CE010E941A01BE012A
:10068000665F7F4FCE010E94EA0309C0CE010E943F
:100690001A01BE01665F7F4FCE010E94EB03DF911E
:1006A000CF91FF90EF900895282FCB01233059F17F
:1006B000243020F4223008F059C009C0253009F454
:1006C00040C0253078F1263009F050C045C0E09197
:1006D0003301F09134013896E491E63039F0E73097
:1006E00041F0E53041F40E94A60105C00E94CD0111
:1006F00002C00E94E901E0913301F0913401329689
:100700002591349125C08091330190913401FC01F1
:100710003896E491E550E43048F10296FC012591C9
:10072000349116C08091330190913401FC013896C8
:10073000E491E550E430D0F00296FC01259134912B
:1007400007C0E0913301F091340136962591349140
:10075000C9010E9407030895E0913301F09134012B
:10076000349625913491C9010E940703089583E7C7
:1007700090E090933401809333010895FC01DB01F4
:10078000828182958F7090E0956011969C938E93F4
:10079000828190E08F709070946013969C938E93FA
:1007A00012978AE093E015969C938E93149781811B
:1007B00082958F7090E0926017969C938E93169717
:1007C000818190E08F709070916019969C938E93C8
:0C07D0001897089508950895F894FFCF3D
:0207DC006400B7
:00000001FF
