:100000000C9461000C947E000C947E000C947E0095
:100010000C947E000C947E000C947E000C947E0068
:100020000C947E000C947E000C947E000C947E0058
:100030000C947E000C947E000C947E000C947E0048
:100040000C947E000C947E000C947E000C947E0038
:100050000C947E000C947E000C947E000C947E0028
:100060000C947E000C947E00000000000000000054
:1000700000007C0068006800A40002008600720096
:100080006800AE00030090007C006800B800040027
:100090009A00860068006800080068009000680008
:1000A00068000900680068007200680005006800C8
:1000B00068007C0068000600680068008600680030
:1000C000070011241FBECFEFD4E0DEBFCDBF11E08B
:1000D000A0E0B1E0ECEAF9E002C005900D92A23098
:1000E000B107D9F711E0A2E0B1E001C01D92AA3337
:1000F000B107E1F70E9431020C94D4040C94000083
:1001000088B1806388B987B18F7C87B980E280939A
:10011000B8001092B900089594EA9093BC009091B1
:10012000BC0097FFFCCF9091B900987F983039F5CB
:100130008093BB0084E88093BC008091BC0087FF63
:10014000FCCF8091B900887F8831C9F46093BB00EF
:1001500084E88093BC008091BC0087FFFCCF809135
:10016000B900887F883259F44093BB0084E88093BB
:10017000BC008091BC0087FFFCCF8091B90084E96E
:100180008093BC00089594EA9093BC009091BC00C9
:1001900097FFFCCF9091B900987F983009F043C049
:1001A0008093BB0094E89093BC009091BC0097FFB3
:1001B000FCCF9091B900987F9831A9F56093BB006E
:1001C00094E89093BC009091BC0097FFFCCF909175
:1001D000B900987F983239F594EA9093BC009091D9
:1001E000BC0097FFFCCF9091B900987F9031D9F473
:1001F0008F5F8093BB0084E88093BC008091BC003B
:1002000087FFFCCF8091B900887F803461F484E857
:100210008093BC008091BC0087FFFCCF8091B90027
:10022000887F883529F084E98093BC0080E00895B8
:100230008091BB0094E99093BC000895CF93DF9325
:10024000EC0180ED60E00E94C300888387EC90E0C1
:100250000197F1F700C0000080ED61E00E94C3004B
:10026000898387EC90E00197F1F700C0000080EDF2
:1002700062E00E94C3008A8387EC90E00197F1F767
:1002800000C0000080ED63E00E94C3008B8387EC18
:1002900090E00197F1F700C0000080ED64E00E945B
:1002A000C3008C8387EC90E00197F1F700C0000059
:1002B00080ED65E00E94C3008D8387EC90E001979C
:1002C000F1F700C0000080ED66E00E94C3008E835D
:1002D00087EC90E00197F1F700C0000080ED67E047
:1002E0000E94C3008F8387EC90E00197F1F700C074
:1002F0000000DF91CF91089580ED60E00E94C3007F
:10030000EFECF7E03197F1F700C0000087FF21C064
:1003100080ED62E042E10E948C0087EC90E0019762
:10032000F1F700C0000080ED61E040E00E948C0029
:10033000E7ECF0E03197F1F700C0000080ED60E0FD
:1003400040E00E948C0087EC90E00197F1F700C03C
:1003500000000895CF93DF93EC0180ED62E04A81C5
:100360000E948C0087EC90E00197F1F700C000003C
:1003700080ED61E049810E948C0087EC90E001975C
:10038000F1F700C0000080ED60E040E00E948C00CA
:1003900087EC90E00197F1F700C00000DF91CF916A
:1003A0000895CF93DF93EC0180ED65E04D810E94CD
:1003B0008C0087EC90E00197F1F700C0000080ED21
:1003C00064E04C810E948C0087EC90E00197F1F78B
:1003D00000C00000DF91CF910895FC0180ED66E040
:1003E00046810E948C0087EC90E00197F1F700C0F5
:1003F0000000089581E0489980E0499B82604A9B13
:1004000084604B9B886008951F930E94FA0180933B
:1004100002018823C9F0909103018917B9F02FEFE9
:1004200030E742E0215030404040E1F700C000009A
:10043000182F882339F00E94FA01181719F4109325
:10044000030105C0109202011092030110E0812FF8
:100450001F9108958BB18F608BB98AB1807F8AB963
:1004600008950E949A020E94E602FDCF84B18C6238
:1004700084B92A9880E58CBD81E08DBD0895DF9315
:10048000CF9300D0CDB7DEB79A838983FE01319632
:1004900081818EBD0DB407FEFDCF80818EBD0DB470
:1004A00007FEFDCF8AE18A95F1F700C02A9A8AE11A
:1004B0008A95F1F700C02A988AE18A95F1F700C081
:1004C0000F900F90CF91DF910895DF92EF92FF92FE
:1004D0000F931F93CF93DF93D62E082F192FC0E0D1
:1004E000D0E0E42EFF241BC0853088F09E0125500B
:1004F0003040C70102C0959587952A95E2F79C0187
:10050000F8018081918120FD05C08F6003C0F80152
:10051000808191810E943F0221960E5F1F4F8C2F98
:10052000CD1510F3DF91CF911F910F91FF90EF90B8
:10053000DF9008950E943D040E94800089E091E0D0
:100540000E947C010E942A020E9436028FE09AE0FB
:1005500090931801809317018FEF99E090931A01FF
:100560008093190185E09BE090931C0180931B010F
:1005700081E09CE090931E0180931D0180E09FE04C
:100580009093200180931F0181E091E090932201DC
:100590008093210182E092E09093240180932301D3
:1005A00083E093E0909326018093250184E094E01A
:1005B000909328018093270185E095E090932A018C
:1005C000809329018FEF8093370108950E940402E0
:1005D00069E071E00E94740380910401909105012B
:1005E00023E0883E920781F41092050110920401E5
:1005F00089E091E00E94130387E191E06AE0409175
:1006000037010E9465020895019690930501809339
:100610000401089520E08836920721F09093390173
:10062000809338010895EF92FF92CF93DF93EC010E
:1006300080910601909107018E31910530F4019669
:10064000909307018093060109C010920701109250
:10065000060180910001809580930001E0913801AE
:10066000F09139013896E491E530B1F1E63038F493
:10067000E330D1F0E43020F5E23089F509C0E7300D
:1006800059F1E73048F1E83039F1E93041F524C05B
:10069000CE010E941E018FEF8EA7BE01685E7F4FC4
:1006A000CE010E9444041BC0CE010E941E018FEFA8
:1006B0008EA7BE01685E7F4FCE010E9470040FC0FE
:1006C000CE010E941E018FEF8EA7BE01685E7F4F94
:1006D000CE010E949C0403C0809100018EA7DF918F
:1006E000CF91FF90EF900895CF93DF93EB0183308C
:1006F00009F4B0C0843030F4813071F0823009F0F8
:10070000B9C03DC0883009F49DC08C3009F4AEC03A
:10071000843009F0AFC066C08091380190913901F2
:10072000FC013896E491E430D9F0E53030F4E23061
:1007300061F0E33009F09EC00CC0E630A1F0E63075
:1007400060F0E73009F096C014C0FC0125913491A7
:100750008BC0FC012591349187C0CB010E94AA0176
:1007600082E790E085C0CB010E94D1018CE790E048
:100770007FC0CB010E94ED0186E890E079C08091B6
:10078000380190913901FC013896E491E730C1F0CD
:10079000E83028F4E53031F0E630F9F40AC0EA3008
:1007A000E0F468C0898160E049E50E94C204898361
:1007B00030C08D8161E042E10E94C2048D8336C069
:1007C0008E8160E049E90E94C2048E83BE01685EAA
:1007D0007F4FCE010E949C044DC00296FC012591E2
:1007E000349142C08091380190913901FC013896D2
:1007F000E491E630A9F0E73018F4E530F1F403C0F5
:10080000EA30D8F437C08A8160E043E20E94C20433
:100810008A83BE01685E7F4FCE010E9444042AC0D5
:100820008C8161E041E30E94C2048C83BE01685E5A
:100830007F4FCE010E9470041DC00296FC012591DD
:10084000349112C0E0913801F0913901329625912E
:1008500034910AC0CB010E941E01E0913801F09151
:100860003901369625913491C90102C080E990E0A2
:100870000E940A03DF91CF91089582E790E0909360
:100880003901809338010895FC01DB018281829552
:100890008F7090E0956011969C938E93828190E08A
:1008A0008F709070946013969C938E9312978AE049
:1008B00093E015969C938E931497818182958F7007
:1008C00090E0926017969C938E931697818190E0AA
:1008D0008F709070916019969C938E9318970895DD
:1008E000FC01DB01848182958F7090E09560119608
:1008F0009C938E93848190E08F7090709460139697
:100900009C938E9312978FEF93E015969C938E9302
:100910001497858182958F7090E0926017969C93D2
:100920008E931697858190E08F70907091601996E4
:100930009C938E9318970895FC01DB018FE095E05E
:1009400011969C938E9382E094E013969C938E93E1
:10095000129780E093E015969C938E93149786816E
:1009600082958F7090E0926017969C938E93169765
:10097000868190E08F709070916019969C938E9311
:1009800018970895282F30E02F70307029303105E6
:1009900014F48F5F02C0805F807F861708F4862F73
:0C09A000481708F4862F0895F894FFCF44
:0209AC00FF004A
:00000001FF
