:100000000C946B000C9488000C9488000C9488006D
:100010000C9488000C9488000C9488000C94880040
:100020000C9488000C9488000C9488000C94880030
:100030000C9488000C9488000C9488000C94880020
:100040000C9488000C9488000C9488000C94880010
:100050000C9488000C9488000C9488000C94880000
:100060000C9488000C948800000000000000000040
:1000700000007C0068006800B80002008600720082
:100080006800C200030090007C006800CC000400FF
:100090009A008600680068000800A40090006800CC
:1000A00068000900AE009A00680068000A00680055
:1000B000A400680068000B00680068007200680017
:1000C0000500680068007C006800060068006800A1
:1000D00086006800070011241FBECFEFD4E0DEBF0A
:1000E000CDBF11E0A0E0B1E0E6E8FCE002C0059081
:1000F0000D92A230B107D9F711E0A2E0B1E001C042
:100100001D92AB33B107E1F70E948A020C944106BD
:100110000C94000088B1806388B987B18F7C87B95F
:1001200080E28093B8001092B900089594EA909309
:10013000BC009091BC0097FFFCCF9091B900987FD4
:10014000983039F58093BB0084E88093BC0080919F
:10015000BC0087FFFCCF8091B900887F8831C9F44B
:100160006093BB0084E88093BC008091BC0087FF53
:10017000FCCF8091B900887F883259F44093BB004E
:1001800084E88093BC008091BC0087FFFCCF809105
:10019000B90084E98093BC00089594EA9093BC0070
:1001A0009091BC0097FFFCCF9091B900987F983058
:1001B00009F043C08093BB0094E89093BC009091F9
:1001C000BC0097FFFCCF9091B900987F9831A9F5BA
:1001D0006093BB0094E89093BC009091BC0097FFA3
:1001E000FCCF9091B900987F983239F594EA9093BA
:1001F000BC009091BC0097FFFCCF9091B900987F14
:100200009031D9F48F5F8093BB0084E88093BC0069
:100210008091BC0087FFFCCF8091B900887F80343B
:1002200061F484E88093BC008091BC0087FFFCCF20
:100230008091B900887F883529F084E98093BC00DB
:1002400080E008958091BB0094E99093BC000895EC
:10025000EF92FF920F931F93DF93CF930F92CDB73F
:10026000DEB7182F7B0100E011C0602F610F80ED19
:1002700049830E94CD00F70181937F0187EC90E0D4
:100280000197F1F700C000000F5F4981041768F380
:100290000F90CF91DF911F910F91FF90EF900895F4
:1002A000CF92DF92FF920F931F93CF93DF93182F7C
:1002B000F42EC62EE6016E01D72EE60100E00DC039
:1002C0004991602F610F80ED0E94960087EC90E0CD
:1002D0000197F1F700C000000F5F0F1588F3DF9161
:1002E000CF911F910F91FF90DF90CF900895CF9302
:1002F000DF93EC0180ED60E00E94CD00888387EC05
:1003000090E00197F1F700C0000080ED61E00E94ED
:10031000CD00898387EC90E00197F1F700C00000E1
:1003200080ED62E00E94CD008A8387EC90E0019727
:10033000F1F700C0000080ED63E00E94CD008B83E8
:1003400087EC90E00197F1F700C0000080ED64E0D9
:100350000E94CD008C8387EC90E00197F1F700C0FC
:10036000000080ED65E00E94CD008D8387EC90E079
:100370000197F1F700C0000080ED66E00E94CD001B
:100380008E8387EC90E00197F1F700C0000080EDCC
:1003900067E00E94CD008F8387EC90E00197F1F732
:1003A00000C00000DF91CF91089580ED60E00E94D1
:1003B000CD00EFECF7E03197F1F700C0000087FFC8
:1003C00021C080ED62E042E10E94960087EC90E05F
:1003D0000197F1F700C0000080ED61E040E00E946D
:1003E0009600E7ECF0E03197F1F700C0000080EDF7
:1003F00060E040E00E94960087EC90E00197F1F702
:1004000000C000000895CF93DF93EC0180ED62E01F
:100410004A810E94960087EC90E00197F1F700C0B6
:10042000000080ED61E049810E94960087EC90E039
:100430000197F1F700C0000080ED60E040E00E940D
:10044000960087EC90E00197F1F700C00000DF9183
:10045000CF910895CF93DF93EC0180ED65E04D815E
:100460000E94960087EC90E00197F1F700C0000031
:1004700080ED64E04C810E94960087EC90E001974B
:10048000F1F700C00000DF91CF910895FC0180EDED
:1004900066E046810E94960087EC90E00197F1F7B4
:1004A00000C00000089581E0489980E0499B826087
:1004B0004A9B84604B9B886008951F930E9453025F
:1004C000809302018823C9F0909103018917B9F044
:1004D0002FEF30E742E0215030404040E1F700C0CC
:1004E0000000182F882339F00E945302181719F4BE
:1004F0001093030105C0109202011092030110E055
:10050000812F1F9108958BB18F608BB98AB1807F45
:100510008AB908950E9405032EE088E190E00FB6A5
:10052000F894A895809360000FBE209360007894A3
:100530000E944C03A895FCCF84B18C6284B92A98A0
:1005400080E58CBD1DBC0895DF93CF9300D0CDB75F
:10055000DEB79A838983FE01319681818EBD0DB409
:1005600007FEFDCF80818EBD0DB407FEFDCF8AE171
:100570008A95F1F700C02A9A8AE18A95F1F700C0BE
:100580002A988AE18A95F1F700C00F900F90CF91D9
:10059000DF910895DF92EF92FF920F931F93CF9315
:1005A000DF93EC01D62E8E8590E081609A60988B67
:1005B0008F877E0100E010E01DC0853080F02FA500
:1005C00030E0C801059702C0359527958A95E2F776
:1005D000F7018785908920FD05C08F6003C0F70172
:1005E000878590890E94A4020F5F1F4F82E090E0F0
:1005F000E80EF91E802F0D1500F3DF91CF911F91AA
:100600000F91FF90EF90DF9008950E943F050E94A8
:100610008A0089E091E00E94D5010E9483020E9435
:100620009C0288E061E171E043E00E94280180E1E2
:1006300064E171E043E00E94280180911101815042
:10064000813118F081E18093110180911401825170
:10065000823118F083E2809314018FE09AE0909346
:100660001901809318018FEF99E090931B018093FB
:100670001A0185E09BE090931D0180931C0181E0AD
:100680009CE090931F0180931E0180E09FE0909377
:1006900021018093200108950E945D0269E071E0CC
:1006A0000E94EE03809104019091050123E0883EB1
:1006B000920771F4109205011092040189E091E013
:1006C0000E94770389E091E06AE00E94CA020895DF
:1006D00001969093050180930401089520E08836E7
:1006E000920721F090933A01809339010895EF9297
:1006F000FF92CF93DF93EC01809106019091070167
:100700008E31910530F40196909307018093060194
:1007100009C0109207011092060180910001809596
:1007200080930001E0913901F0913A013896E4910B
:10073000E63009F44BC0E73070F4E33049F1E430BF
:1007400020F4E23009F045C014C0E43081F1E53016
:1007500009F03FC03BC0E930C9F1EA3028F4E73086
:10076000A9F1E830B1F532C0EA3081F1EB3089F51A
:100770002DC0CE010E9477018FEF8FA7CE010E947E
:100780000D06BE01675E7F4FCE010E94460521C067
:10079000CE010E9477018FEF8FA7CE010E940D0638
:1007A000BE01675E7F4FCE010E94720512C0CE016E
:1007B0000E9477018FEF8FA7CE010E940D06BE0128
:1007C000675E7F4FCE010E949E0503C080910001AD
:1007D0008FA7DF91CF91FF90EF900895CF93DF9394
:1007E000EB01833009F430C1843030F4813059F0AA
:1007F000823009F041C187C0843009F4DDC08C30FB
:1008000009F03AC12DC18091390190913A01FC0162
:100810003896E491E63079F1E73078F4E33019F175
:10082000E43020F4E23009F027C119C0E43009F4C3
:1008300067C0E53009F020C11AC0E93009F434C0BE
:10084000EA3030F4E730E9F0E83009F015C11FC0B4
:10085000EA3009F43FC0EB3009F00EC148C0FC019A
:1008600025913491FBC0FC0125913491F7C0CB0157
:100870000E94030245C0CB010E942A028CE790E04F
:10088000F9C0CB010E94460286E890E0F3C0675EA3
:100890007F4FCE0108960E94C405E0913901F09186
:1008A0003A0125913491DAC0685F7F4F88E043E0D8
:1008B0000E945001BE01675E7F4FCE010B960E94E1
:1008C000F0058D858E87E0913901F0913A012591EF
:1008D0003491C4C0675E7F4FCE010B960E94C40561
:1008E000E0913901F0913A0125913491B7C0655FEB
:1008F0007F4F80E143E00E945001CE010E940D062F
:1009000082E790E0B7C0E0913901F0913A01389662
:10091000E491E830D9F1E93040F4E630A9F0E7306D
:10092000D0F4E53009F0A8C008C0EA30C9F1EA30D7
:10093000F8F0EB3009F0A0C022C0898160E049E501
:100940000E942F06898352C08D8161E042E10E949E
:100950002F068D8358C08E8160E049E90E942F06E2
:100960008E83BE01675E7F4FCE010E949E0584C0CC
:10097000898560E049E50E942F06898751C08C85F2
:1009800060E049E50E942F068C8756C08A858E5FFD
:100990008F708A878E87675E7F4FCE01089609C069
:1009A0008D858E5F8F708D878E87675E7F4FCE01BE
:1009B0000B960E94F00560C0E0913901F0913A0178
:1009C0003896E491E630C9F0E73020F4E53009F0DC
:1009D00053C006C0E930F1F0EB3009F04DC026C03D
:1009E0008A8160E043E20E942F068A83BE01675E2F
:1009F0007F4FCE010E9446053FC08C8161E041E3FC
:100A00000E942F068C83BE01675E7F4FCE010E943D
:100A1000720532C0888561E041E10E942F06888717
:100A2000BE01675E7F4FCE0108960BC08B8562E1E9
:100A300043E20E942F068B87BE01675E7F4FCE0187
:100A40000B960E94C40518C0CB010E947701E0916B
:100A50003901F0913A01369625913491C9010AC0C5
:100A60008A858E87675E7F4FCE0108960E94F005CB
:100A700080E990E00E946E03DF91CF91089582E7B4
:100A800090E090933A01809339010895FC01DB01D5
:100A9000828182958F7090E0956011969C938E93E1
:100AA000828190E08F709070946013969C938E93E7
:100AB00012978AE093E015969C938E931497818108
:100AC00082958F7090E0926017969C938E93169704
:100AD000818190E08F709070916019969C938E93B5
:100AE00018970895FC01DB01848182958F7090E056
:100AF000956011969C938E93848190E08F70907096
:100B0000946013969C938E9312978FEF93E01596B3
:100B10009C938E931497858182958F7090E092605C
:100B200017969C938E931697858190E08F709070A6
:100B3000916019969C938E9318970895FC01DB01A0
:100B40008FE095E011969C938E9382E094E013964B
:100B50009C938E93129780E093E015969C938E93CE
:100B60001497868182958F7090E0926017969C937F
:100B70008E931697868190E08F7090709160199691
:100B80009C938E9318970895FC01DB0180818295D8
:100B90008F7090E0956011969C938E93808190E089
:100BA0008F709070946013969C938E9312978AE046
:100BB00093E015969C938E931497818182958F7004
:100BC00090E0926017969C938E931697818190E0A7
:100BD0008F709070916019969C938E9318970895DA
:100BE000FB012FE035E0318320832FE034E03383B5
:100BF00022832FE033E0358324832FE032E03783F4
:100C00002683DC0112968C911297869590E08F7066
:100C100090709160918780870895FC01828124E61D
:100C2000829FC00111243181830F911D4085429F15
:100C3000A00111243185430F511D8417950760F0E1
:100C40003385329F900111244485240F311D821772
:100C5000930710F4828501C0858586870895282F23
:100C600030E02F7030702930310514F48F5F02C0EE
:100C7000805F807F861708F4862F481708F4862F38
:060C80000895F894FFCF77
:020C8600FF006D
:00000001FF
