:103C000011241FBECFE5D4E0DEBFCDBF10E0A0E69B
:103C1000B0E001C01D92A03EB107E1F70E94321E44
:103C20000C94D91F0C94141E08955D9BFECF81E463
:103C30008CB95D9BFECF86E58CB95D9BFECF82E59E
:103C40008CB95D9BFECF82E48CB95D9BFECF8FE487
:103C50008CB95D9BFECF8FE48CB95D9BFECF84E574
:103C60008CB908952F923F924F925F926F927F92FC
:103C70008F929F92AF92BF92CF92DF92EF92FF927C
:103C80000F931F93CF93DF93959A8D9AF894A895ED
:103C900088E10FB6F89481BD11BC0FBE8F98979A3A
:103CA00010BC99E199B98AB986E880BD00E010E0BE
:103CB000EE24FF24C0E2DEE45F9B03C08CB18335B9
:103CC00079F071E00039170728F0979895988D984A
:103CD000F70109950F5F1F4FCE010197F1F7ECCF68
:103CE0000E94151E00E010E0AA2439E5532E2DE0B5
:103CF000B22E91E1692E83E0782EB4E94B2EAEE12D
:103D00003A2EFFE32F2EE8E18E2E912C5F9BFECF03
:103D10009CB1913621F45D9BFECF5CB8F7CF913416
:103D200079F45F9BFECF9CB15F9BFECF8CB15D9B16
:103D3000FECFD92ECC24082F10E00C291D2914C148
:103D4000923651F45D9BFECF5CB85D9BFECF1CB8F4
:103D50005D9BFECF80E818C1923409F072C05F9B72
:103D6000FECF8CB15F9BFECF6CB15F9BFECF2CB1C1
:103D700080E0E0E6F0E0861710F09FEF03C05F9B65
:103D8000FECF9CB191938F5F8038A9F7E5E7AE161F
:103D900009F054C0263491F5780100E010E0EE0CF3
:103DA000FF1C001F111FA8019701A0E6B0E08C9135
:103DB00090E01196DC911197C0E08C2B9D2B129610
:103DC00071E0F9010C0170935700E89511242E5F02
:103DD0003F4F4F4F5F4F625051F775E0F7017093BF
:103DE0005700E89507B600FCFDCF60925700E895B4
:103DF000569547953795279589011DC02534D9F4E7
:103E0000E0E6F0E080E090E09C01200F311F41915E
:103E1000E199FECF3FBB2EBB4DBB0FB6F894E29AA3
:103E2000E19A0FBE0196681779F76150862F90E0EE
:103E30000196080F191F5D9BFECF96C05D9BFECFBC
:103E400080C0973609F03FC05F9BFECF8CB15F9B6F
:103E5000FECF8CB15F9BFECF2CB12634E1F49801EC
:103E600040E050E0220F331F441F551FF9016591B8
:103E700074915D9BFECF6CB95D9BFECF7CB92E5FCC
:103E80003F4F4F4F5F4F825089F756954795379573
:103E9000279589013BCF253409F038CF982F980119
:103EA000E199FECF3FBB2EBBE09A4DB35D9BFECFA9
:103EB0004CB92F5F3F4F915099F7815090E0019698
:103EC000080F191F23CF9536B9F485E7A81689F492
:103ED000E0E0F0E070925700E89507B600FCFDCFF7
:103EE000E058FF4F7CE3E030F707A1F760925700FE
:103EF000E8955D9BFECF38C0953451F48CE00FB649
:103F0000F894A89581BC0FBE81BD5D9BFECF2CC0EF
:103F1000903519F45D9BFECF27C09C3419F45D9B4E
:103F2000FECF22C0903729F45D9BFECFE3E5ECB9CC
:103F3000EDCE943741F45D9BFECFF5E7FCB95D9B78
:103F4000FECF1CB8E3CE892F8857823030F45F9BB8
:103F5000FECF8CB15D9BFECF07C0943539F45F9BDB
:103F6000FECFACB05D9BFECFBCB8D0CE933519F47C
:103F70000E94151ECBCE963549F45D9BFECF70E3B3
:103F80007CB95D9BFECF88E38CB9C0CE933751F4EA
:103F90005D9BFECF7CB85D9BFECF4CB85D9BFECF9A
:103FA0003CB8B4CE9B3109F4B1CE5D9BFECF2CB8AA
:063FB000ADCEF894FFCF36
:0400000300003C00BD
:00000001FF
